{
  "contractName": "Election",
  "abi": [
    {
      "inputs": [],
      "payable": false,
      "stateMutability": "nonpayable",
      "type": "constructor"
    },
    {
      "anonymous": false,
      "inputs": [
        {
          "indexed": true,
          "internalType": "uint256",
          "name": "_idCandidat",
          "type": "uint256"
        }
      ],
      "name": "evVote",
      "type": "event"
    },
    {
      "constant": true,
      "inputs": [
        {
          "internalType": "uint256",
          "name": "",
          "type": "uint256"
        }
      ],
      "name": "candidats",
      "outputs": [
        {
          "internalType": "uint256",
          "name": "id",
          "type": "uint256"
        },
        {
          "internalType": "string",
          "name": "nom",
          "type": "string"
        },
        {
          "internalType": "uint256",
          "name": "nbrVotes",
          "type": "uint256"
        }
      ],
      "payable": false,
      "stateMutability": "view",
      "type": "function"
    },
    {
      "constant": true,
      "inputs": [],
      "name": "decompteCandidats",
      "outputs": [
        {
          "internalType": "uint256",
          "name": "",
          "type": "uint256"
        }
      ],
      "payable": false,
      "stateMutability": "view",
      "type": "function"
    },
    {
      "constant": true,
      "inputs": [
        {
          "internalType": "address",
          "name": "",
          "type": "address"
        }
      ],
      "name": "electeurs",
      "outputs": [
        {
          "internalType": "bool",
          "name": "",
          "type": "bool"
        }
      ],
      "payable": false,
      "stateMutability": "view",
      "type": "function"
    },
    {
      "constant": false,
      "inputs": [
        {
          "internalType": "uint256",
          "name": "_idCandidat",
          "type": "uint256"
        }
      ],
      "name": "vote",
      "outputs": [],
      "payable": false,
      "stateMutability": "nonpayable",
      "type": "function"
    }
  ],
  "bytecode": "0x608060405234801561001057600080fd5b506100556040518060400160405280600a81526020017f43616e646964617420310000000000000000000000000000000000000000000081525061009e60201b60201c565b6100996040518060400160405280600a81526020017f43616e646964617420320000000000000000000000000000000000000000000081525061009e60201b60201c565b6101bf565b60026000815480929190600101919050555060405180606001604052806002548152602001828152602001600081525060016000600254815260200190815260200160002060008201518160000155602082015181600101908051906020019061010992919061011a565b506040820151816002015590505050565b828054600181600116156101000203166002900490600052602060002090601f016020900481019282601f1061015b57805160ff1916838001178555610189565b82800160010185558215610189579182015b8281111561018857825182559160200191906001019061016d565b5b509050610196919061019a565b5090565b6101bc91905b808211156101b85760008160009055506001016101a0565b5090565b90565b6103e9806101ce6000396000f3fe608060405234801561001057600080fd5b506004361061004c5760003560e01c80630121b93f14610051578063647aa9531461007f578063c6d5bb1c14610134578063ec2e152714610152575b600080fd5b61007d6004803603602081101561006757600080fd5b81019080803590602001909291905050506101ae565b005b6100ab6004803603602081101561009557600080fd5b81019080803590602001909291905050506102cc565b6040518084815260200180602001838152602001828103825284818151815260200191508051906020019080838360005b838110156100f75780820151818401526020810190506100dc565b50505050905090810190601f1680156101245780820380516001836020036101000a031916815260200191505b5094505050505060405180910390f35b61013c61038e565b6040518082815260200191505060405180910390f35b6101946004803603602081101561016857600080fd5b81019080803573ffffffffffffffffffffffffffffffffffffffff169060200190929190505050610394565b604051808215151515815260200191505060405180910390f35b6000803373ffffffffffffffffffffffffffffffffffffffff1673ffffffffffffffffffffffffffffffffffffffff16815260200190815260200160002060009054906101000a900460ff161561020457600080fd5b60008111801561021657506002548111155b61021f57600080fd5b60016000803373ffffffffffffffffffffffffffffffffffffffff1673ffffffffffffffffffffffffffffffffffffffff16815260200190815260200160002060006101000a81548160ff0219169083151502179055506001600082815260200190815260200160002060020160008154809291906001019190505550807fef38b628da1a8645cb266f07c25863644f78654f54e6e454b3b90d594712827060405160405180910390a250565b6001602052806000526040600020600091509050806000015490806001018054600181600116156101000203166002900480601f01602080910402602001604051908101604052809291908181526020018280546001816001161561010002031660029004801561037e5780601f106103535761010080835404028352916020019161037e565b820191906000526020600020905b81548152906001019060200180831161036157829003601f168201915b5050505050908060020154905083565b60025481565b60006020528060005260406000206000915054906101000a900460ff168156fea265627a7a723158202ed8d45876cf25c67f795243785762ff1a923f345f42588c1dc80381b2aef79764736f6c63430005100032",
  "source": "// pragma solidity ^0.6.1;     // Suitable Version for running in Visual Studio Code\r\npragma solidity ^0.5.16; // Suitable Version for running in the CMD\r\n\r\ncontract Election {\r\n    // Modeliser un Candidat\r\n    struct Candidat {\r\n        uint id;\r\n        string nom;\r\n        uint nbrVotes;\r\n    }\r\n\r\n    // Il nous faut enregistrer les comptes ayant voté\r\n    // \"address => bool\" chaque adresse de compte sera associée à une valeur booléenne\r\n    // pour déterminer si oui ou non cette adresse de compte a déjà voté\r\n    mapping(address => bool) public electeurs;\r\n\r\n    // Stocker des Candidats\r\n    mapping(uint => Candidat) public candidats;\r\n\r\n    // Extraire des Candidats\r\n    // Stocker le décompte des Candidats\r\n    uint public decompteCandidats;\r\n\r\n    // Evénement de Vote à déclencher à chaque appel de la fonciton vote()\r\n    event evVote (\r\n        uint indexed _idCandidat\r\n    );\r\n\r\n    // Constructor\r\n    constructor() public {\r\n        ajoutCandidat(\"Candidat 1\");\r\n        ajoutCandidat(\"Candidat 2\");\r\n    }\r\n\r\n    function ajoutCandidat (string memory _name) private {\r\n        decompteCandidats++;\r\n        candidats[decompteCandidats] = Candidat(decompteCandidats, _name, 0);\r\n    }\r\n\r\n    // Nous voulons cette fonction publique pour permettre\r\n    // aux comptes externes d'y avoir directement accès plutôt que\r\n    // de restreindre sa portée aà ce \"Smart Contract\"\r\n    // Solidity nous permet aussi de spécifier des méta-données (exemple adresse du\r\n    // compte exécutant la fonction, valeur qu'on récupère à partir de \"msg.sender\") en plus\r\n    // du paramètre requis \"_idCandidat\" pour notre cas.\r\n    function vote(uint _idCandidat) public {\r\n        // S'assurer que l'électeur n'a pas déjà voté avant\r\n        // Nous utilisons pour ce faire, la fonciton \"require()\"\r\n        // de Solidity qui reçoit une condition et arrête l'exécution\r\n        // du code si cette condition n'est pas vérifiée (VRAI)\r\n        // -- Retourne FAUX, si msg.sender avait déjà voté (est présent dans le mapping \"electeurs\")\r\n        require(!electeurs[msg.sender]);\r\n\r\n        // S'assurer que le candidat à voter est un candidat valide\r\n        // Il n'y en a que deux et on ne souhaite pas permettre un vote\r\n        // Pour un candidat avec un ID 90 par exemple!\r\n        require(_idCandidat > 0 && _idCandidat <= decompteCandidats);\r\n\r\n        // \"msg.sender\" nous permet d'accéder au compte (adresse) qui\r\n        // exécute cette fonction (le compte qui vote)\r\n        // Se souvenir que cet électeur a bel et bien déjà voté une fois pour toute\r\n        electeurs[msg.sender] = true;\r\n\r\n        // Mettre à jour le nombre de votes reçu par le candidat\r\n        candidats[_idCandidat].nbrVotes++;\r\n\r\n        // Déclencher l'évenement de vote\r\n        emit evVote(_idCandidat);\r\n    }\r\n}",
  "sourcePath": "C:\\Users\\MiAKASSiSSA\\Documents\\GitHub\\election\\contracts\\Election.sol",
  "compiler": {
    "name": "solc",
    "version": "0.5.16+commit.9c3226ce.Emscripten.clang"
  },
  "schemaVersion": "3.0.23",
  "updatedAt": "2020-03-01T01:34:35.869Z",
  "networkType": "ethereum",
  "devdoc": {
    "methods": {}
  },
  "userdoc": {
    "methods": {}
  }
}